:020000040800F2
:10000000000003205D0600081522000817220008E2
:10001000192200081B2200081D2200080000000011
:10002000000000000000000000000000D176000881
:100030001F2200080000000061770008F16F00082F
:10004000AD060008AD060008AD060008AD060008C4
:10005000AD060008AD060008AD060008AD060008B4
:10006000AD060008AD060008AD060008AD060008A4
:10007000AD060008AD060008AD060008AD06000894
:10008000AD060008AD060008AD060008AD06000884
:10009000AD060008AD060008AD060008AD06000874
:1000A000AD060008AD060008AD060008AD06000864
:1000B000AD060008AD060008AD060008AD06000854
:1000C000AD060008AD060008AD060008AD06000844
:1000D000AD060008AD060008AD060008AD06000834
:1000E000AD060008AD060008AD060008AD06000824
:1000F000AD060008AD060008AD060008AD06000814
:10010000AD060008AD060008AD060008AD06000803
:10011000AD060008AD06000821220008AD06000863
:10012000AD060008AD060008AD060008AD060008E3
:10013000AD060008AD060008AD060008AD060008D3
:10014000AD060008AD060008AD060008AD060008C3
:10015000AD060008AD060008AD060008AD060008B3
:10016000AD060008AD060008AD060008AD060008A3
:10017000AD060008AD060008AD060008000000004E
:10018000AD060008AD060008AD060008AD06000883
:10019000AD060008AD060008AD060008AD06000873
:0C01A0002D220008AD06000839220008DE
:1001B00010B5054C237833B9044B13B10448AFF3A1
:1001C00000800123237010BD800300200000000088
:1001D000F436020808B5034B1BB103490348AFF3DB
:1001E000008008BD0000000084030020F4360208EF
:1001F00001F0FF01102A2BDB10F0070F08D010F8D8
:10020000013B013A8B422DD010F0070F42B3F6D1DB
:10021000F0B441EA012141EA014122F007047FF0F4
:1002200000070023F0E80256083C85EA010586EA4B
:10023000010685FA47F5A3FA87F586FA47F6A5FA87
:1002400087F68EB9EED1F0BC01F0FF0102F0070293
:1002500032B110F8013B013A83EA010313B1F8D13E
:100260000020704701387047002D06BF354603381F
:10027000073815F0010F07D1013015F4807F02BF58
:10028000013015F4C03F0130F0BC0138704700BFA9
:100290007BB972B90029BEBF00204FF0004106E0D3
:1002A00008BF00281CBF6FF000414FF0FF3000F086
:1002B000D3B9ADF1080C6DE904CE002909DB002BA0
:1002C0001ADB00F04DF8DDF804E0DDE9022304B0AC
:1002D0007047404261EB4101002B1BDB00F040F80E
:1002E000DDF804E0DDE9022304B0404261EB4101A6
:1002F000524263EB43037047524263EB430300F007
:100300002FF8DDF804E0DDE9022304B0404261EBA0
:1003100041017047524263EB430300F021F8DDF8DE
:1003200004E0DDE9022304B0524263EB430370476B
:1003300053B94AB9002908BF00281CBF4FF0FF314C
:100340004FF0FF3000F088B9ADF1080C6DE904CE34
:1003500000F006F8DDF804E0DDE9022304B07047A0
:100360002DE9F047089D8E4604468846002B4AD169
:100370008A42174662D9B2FA82F64EB1C6F120031C
:1003800001FA06F820FA03F3B74043EA0808B4403C
:100390004FEA174E1FFA87FCB8FBFEF1230C0EFB49
:1003A000118843EA084301FB0CF29A4209D9FB1871
:1003B00001F1FF3080F0EA809A4240F2E780023992
:1003C0003B449A1AA3B2B2FBFEF00EFB102243EAA2
:1003D000024300FB0CFC9C4509D9FB1800F1FF32DD
:1003E00080F0D6809C4540F2D3803B44023840EAFE
:1003F0000140A3EB0C0300211DB1F3400022C5E92D
:100400000032BDE8F0878B4205D90DB1C5E9000186
:1004100000210846F5E7B3FA83F1002946D1734578
:1004200002D3824200F20581841A6EEB030201209E
:100430009046002DE5D0C5E90048E2E7002A00F02B
:100440009080B2FA82F6002E40F0A4808A1A030C43
:100450004FEA174E80B2BCB20121B2FBFEFC0EFB8C
:100460001C2243EA024304FB0CF29A4207D9FB1810
:100470000CF1FF3802D29A4200F2E080C4469B1A87
:10048000B3FBFEF20EFB123340EA034302FB04F41B
:100490009C4207D9FB1802F1FF3002D29C4200F2C5
:1004A000CA8002461B1B42EA0C40A5E7C1F12006A8
:1004B0008B4022FA06F71F430EFA01F420FA06F3E6
:1004C0002EFA06FE4FEA1749234300FA01F81FFAF5
:1004D00087FCBEFBF9F01C0C09FB10EE44EA0E444D
:1004E00000FB0CFEA64502FA01F209D93C1900F105
:1004F000FF3A80F09C80A64540F2998002383C4447
:10050000A4EB0E041FFA83FEB4FBF9F309FB1344BA
:100510004EEA044403FB0CFCA44508D93C1903F142
:10052000FF3E80F08280A4457FD9023B3C4443EAF1
:100530000040A4EB0C04A0FB02EC64457346E146CA
:1005400062D35FD05DB1B8EB030264EB090404FA37
:1005500006F622FA01F31E43CC40C5E900640021EF
:100560004FE7B1FBF2FC010C41EA0E4180B240EAD8
:1005700001423B4638463C46B846BE462026B1FBC3
:10058000F7F1A2EB080241EA0C4166E7014618E7E1
:1005900010462CE7C6F120022EFA02F3B740B14014
:1005A00020FA02F24FEA174E0A43B3FBFEF8BCB240
:1005B0000EFB1833110C41EA034108FB04F9B0406B
:1005C00089454FEA104380B23ED9791808F1FF3CC3
:1005D00001D289451FD8A1EB0901B1FBFEF909FB46
:1005E00004F80EFB191192B242EA0142424529D2A7
:1005F000BA1809F1FF31C4D24245C2D2A9F10201B1
:100600003A44BEE7F0459DD2BEEB02036CEB070C0B
:100610000138E14696E7A7EB09094944A8F1020C25
:10062000B1FBFEF909FB04F8DBE773467FE75046B0
:1006300066E70846FDE63B44023A33E7ACF1020CBC
:100640003B441CE749469CE7A1EB0901C446B1FBCA
:10065000FEF909FB04F8C4E7704700BFDFF834D0A7
:10066000002103E00C4B5B58435004310B480C4B0A
:1006700042189A42F6D30B4A02E0002342F8043BA8
:10068000094B9A42F9D304F035FA22F0C5FA01F089
:1006900063F8704700000320F0AF0F08000000204F
:1006A00064010020800300204C3A0120FEE77047DF
:1006B00008B500F0BBFDBDE8084000F03FBD00F00C
:1006C000B7BD704710B50421044621F0B9F82046A3
:1006D00010BD000038B50C4B0C4C18800C4B822020
:1006E00019806368984740F6110398420AD1094D72
:1006F00023682C60822098472B688220DB6898470B
:10070000002038BD0120FCE7A60300204C0000209B
:10071000A4030020A80300204FF4A071F020FFF7ED
:10072000D9BF0000F7B5394D2B6804461B698220FC
:100730009847208000284ED02B680DF106025B6997
:1007400001A982209847324B1B78002B4BD0BDF873
:10075000062040F674639A423FD9ADF80630BDF8E2
:1007600006209B1A9BB20A2B42D90B22B3FBF2F351
:10077000284A1288934201D9013A93B2BDF8042065
:10078000254840F6B8318A4234D8C2F571620E323B
:10079000016892B20F25B2FBF5F2204D2D88AA42D6
:1007A00084BF05F1FF35AAB28A4215468EB22AD916
:1007B000921B91B21A4E3768BB42BAB28CBF9A1ADA
:1007C000D21A92B211440529C4BF05603360036890
:1007D00063803368A38003B0F0BDB32A9CBFB4220A
:1007E000ADF80620BBE7BDF80630A3F5B473B9E752
:1007F0000023C3E7C2F56D62083292B20E2A016887
:10080000C8D800252A46891A89B2D3E7A803002050
:10081000501C0020A4030020A0030020A6030020F9
:100820009C03002037B568460D461446FFF77AFF53
:10083000BDF8000030B1BDF802302B60BDF80430C7
:100840002360012003B030BD032821D8DFE800F089
:10085000020B12190F4B1A68B2FA82F252090421E4
:100860000D4804F0DBBB0B4B5A68B2FA82F2520916
:100870000821F5E7074B9A68B2FA82F25209102173
:10088000EEE7044BDA68B2FA82F252092021E7E778
:10089000704700BFAC03002000100240032821D89D
:1008A000DFE800F0020B12190F4B1A68003A18BF6C
:1008B000012204210D4804F0B1BB0B4B5A68003AE9
:1008C00018BF01220821F5E7074B9A68003A18BFC4
:1008D00001221021EEE7044BDA68003A18BF01222A
:1008E0002021E7E7704700BFAC0300200010024062
:1008F00003280DD8DFE800F00206080A04210548A5
:1009000004F091BB0821FAE71021F8E72021F6E76F
:10091000704700BF0010024008B5032811D8DFE877
:1009200000F0020A0C0E0421074804F071FB431E7C
:100930005842584108BD0821F6E71021F4E720216C
:10094000F2E70020F3E700BF0010024070B5084D49
:1009500000240126E0B2FFF7DFFF18B12B68012B5E
:1009600018BF2E600134052C05F10405F2D170BDCD
:10097000AC030020012380F8781080F879307047AC
:100980007047002070470000034B4164003918BFD6
:1009900001211970704700BF0B2D01207047002006
:1009A0007047836B0BB10846184770474FF6FF70CE
:1009B0007047406803689B691847704770477047E5
:1009C0007047704710B5044600F048FD236803499E
:1009D000D3F890302046BDE810401847000000D002
:1009E00008B503680446D3F8843098472368204646
:1009F000DB6F984700F0ECF8236820465B6F984760
:100A0000292001F027F900F0E3F8236820465B6F06
:100A10009847F8E710B5044609F078FC23682046AB
:100A2000D3F8BC30BDE81040184700F0FBBC00F024
:100A3000FFBC00F031BD00F0D1BC00F041BD00F0C2
:100A400049BD00F0D5BC08F08FBE10B58421044626
:100A500020F0F6FE204610BD10B590F8341090F846
:100A600078400C4B8C421A7809D03AB90A4A0B49A3
:100A70001488088810800C8001221A7010BD002A8A
:100A8000FCD0054A05491488088810800C80002293
:100A9000F3E700BF042D0120002D0120022D0120CD
:100AA00070B50D46194635B9094B0A4A0A4840F255
:100AB000FF2121F001FEC0E90F52084B003A18BF98
:100AC00001221A700368BDE87040D3F890301847CF
:100AD000643702089C370208EA3702080A2D012011
:100AE00008B5094B1B888B4203D8084B1B889342DF
:100AF00005D9074B074A0848A32121F0DDFD074B24
:100B00001980074B1A8008BD002D0120022D0120FD
:100B10002F38020892380208EA370208062D012011
:100B2000082D0120034690F87A0018B15868036830
:100B30001B68184770470000012108B500220846CD
:100B400006F0E0FA0A4B186028B90A4B0A4A282135
:100B50000A4821F0B1FD00220421012006F071FBBA
:100B6000074B186018B9074B034A2C21F0E708BD62
:100B7000C0030020D53802081E3902084D3902088A
:100B8000BC03002098390208024B4FF0FF3118686F
:100B900006F002BBC0030020014B186806F028BB1A
:100BA000C0030020024B0021186806F0F5BA00BF10
:100BB000C0030020FFF7F0BF03480449006800238A
:100BC0001A4606F079BB00BFBC03002004000020D9
:100BD00013B5084C00231A4601A9206806F09DFBB6
:100BE00020684FF0FF33002201A906F096FB02B007
:100BF00010BD00BFBC03002003685B6C18470120D8
:100C0000704703689B6A1847FEE740F2EF30704771
:100C1000054B0360054B4FF08062C3F88820BFF39B
:100C20004F8FBFF36F8F7047F844020800E100E078
:100C300010B504464FF45A61FFF7EAFF204620F052
:100C4000FFFD204610BD000082B0002301930E4B33
:100C50001A6B42F400021A631A6B02F4000201924A
:100C6000019A1A6942F400021A611A6922F4000218
:100C70001A61064B064A1A61064A5A61064B4FF042
:100C800080629A6002B0704700380240E41D002084
:100C9000E90E0008090C000800E100E008B50A2888
:100CA00009D8DFE800F006100E0808080810101038
:100CB0001000022008BD054B054A0648902121F08E
:100CC000FBFC0020F6E70120F4E700BFDA39020858
:100CD000F5390208403A020838B50C46887FFFF71C
:100CE000DDFFA58AE28A164B2169586342EA054274
:100CF0005A64628BD963521B1A642568082D0ED181
:100D00009A611A615862207F0E4A42EA0062DA61F3
:100D1000E2681A620C4A5961D9601A6038BD002233
:100D2000D8611A61E1680A0A480902F4784200F4BD
:100D3000FC600243C1F3C4010A439A63034AECE72F
:100D400000B002400900010001230200012303005A
:100D500008B50B280BD8DFE800F00612100A0A0AC3
:100D60000A0808080808022008BD0520FCE7054B12
:100D7000054A06486F2121F09FFC0020F4E701207E
:100D8000F2E700BFDA390208893A0208403A02085D
:100D90002DE9F04191F81D800C464046FFF7D8FF41
:100DA000A77F05463846FFF7D3FF06463846FFF7CC
:100DB00075FFA18A628B444B521A1A649A61228B86
:100DC000521A1A61E28A586342EA01425A6421695E
:100DD0006268D963DA602068802828D0227F0FD823
:100DE000202867D0402865D004281AD0364B45EA21
:100DF000026545F40035B845DD6161D0334A44E011
:100E0000B0F5807F04D0B0F5007FEFD1304800E02E
:100E1000304840EA0262DA61E2681A625E62596151
:100E200032E045EA026242F40032DA61F6E7A06895
:100E3000021DDA62227F45EA026545F40035DD6174
:100E40005E625961017841B1012921D0224B234AC8
:100E500023484FF48D7121F02FFCDA69418822F488
:100E60007F42013922F0100242EA0122DA610121B7
:100E7000154BDA6942F02002DA61DA699206FCD495
:100E800010229A600029B9D0164A1A60BDE8F08194
:100E9000B2F1FF01DA69408822F47F4200F1FF30AD
:100EA00022F0100242EA002242F0100218BF012193
:100EB000DA61DDE745EA0262034B42F40032B4E74F
:100EC00042F20132E1E700BF00B00240012301001D
:100ED000090002000A000200D33A0208ED3A0208B3
:100EE000403A020801230200024B1B68586803685D
:100EF0005B6918470C2D012070B5044625460A4B46
:100F00000C30002660602672667245F8203B602235
:100F1000294609F051FB04F55A63EE6024359D42E1
:100F2000FBD1204670BD00BFF8440208034B1A688D
:100F3000D207FCD423229A60704700BF00B0024061
:100F40007047000030B50F4C2568ED07FCD4232511
:100F50000904A56041F001010225FF2B656361646E
:100F6000E0630AD00849656241EA0363E361074B25
:100F700022626061E060236030BDE561039BA36392
:100F8000034BF8E700B00240090001000100020035
:100F90000100030030B50E4C2568ED07FCD4232575
:100FA0001204A56042F001020225FF2B6563626412
:100FB000E063E16008D01B0643F00213E361054BD8
:100FC00065626061236030BD034BE3610123F9E793
:100FD00000B0024001000200020002FF30B50B4CDD
:100FE0002568ED07FCD4232512041B06A56043F4F5
:100FF0000033022542F0010265636264E063E16050
:10100000E361034B65626061236030BD00B0024064
:1010100001000200012070470C2070470C2303FBE5
:101020000100083070470C2303FB010008307047B3
:101030000120704740F24470704740F2447303FB54
:1010400001000830704740F2447303FB0100083090
:101050007047012070471020704700EB01100830E6
:10106000704700EB011008307047084601F0C6BF1A
:1010700010B5034B0360044608F0CCF8204610BDC1
:10108000B045020810B50446FFF7F2FF20461421D0
:1010900020F0D6FB204610BD10B5034B036004467C
:1010A00008F0B8F8204610BD7C45020810B504468B
:1010B000FFF7F2FF204640F24C7120F0C1FB2046C2
:1010C00010BD000010B5034B0360044608F0A2F801
:1010D000204610BD4845020810B50446FFF7F2FF50
:1010E0002046182120F0ACFB204610BD10B5084B5F
:1010F0000360044600F5EF60FFF7BAFF04F12C002F
:10110000FFF7CAFF04F11400FFF7DCFF204610BD13
:10111000E445020808B50248FFF7E8FF08BD00BF34
:101120009C12002010B50446FFF7E0FF204640F671
:10113000EC0120F085FB204610BD00002DE9F341B5
:1011400001F0EEF8054601F0EFF8002401462346D1
:1011500028462246009411F0C1FA274B274A1A600C
:10116000204602F0C5FF264D264B274A27489A60A5
:1011700011F01CFA2B68BFF35B8FDB0735D42846D0
:1011800020F060FB88B3224C224B236004F5F2660A
:1011900004F1140004F12C0804F5EF676060C4F852
:1011A0000880E760266108F037F81B4B6361404612
:1011B00008F032F8194BE362384608F02DF8184B66
:1011C000C4F8783704F28C7003F0F0F9224604F288
:1011D0008C71304603F0B0F8304601F00FFF114833
:1011E00021F088FA284620F039FB0F4802B0BDE80C
:1011F000F041FFF7E7BB00BF702D0120480400203D
:1012000098120020680400204C04002008000020F0
:101210009C120020E4450208484502087C4502086B
:10122000B045020815110008C403002070470000F3
:101230000148FFF7D5BB00BFC403002070B5264EA0
:10124000264C274D274B23603046FFF755FE284696
:1012500016F04AFB24480FF0CDFA244B2448DC60FA
:1012600000224FF48071C3E9121222491A86C3E9A1
:101270001A12214983F85820C3E91E011F49C3F8F7
:1012800080101F491F480B60F021C3E90422C3E905
:101290000622C3E90822C3E90A22C3E90E22C3E9F0
:1012A0001022C3E91422C3E917225A6683F870207A
:1012B0005A67C3E9016501801348018013484FF460
:1012C000A07101801248018012490A70012283F83E
:1012D0003420114A1A6070BDF404002094120020DA
:1012E00068040020543702084C040020C403002086
:1012F0000000010101000001000450001A00140068
:101300000C2D0120002D0120062D0120022D012091
:10131000082D0120042D01200C4402080148FFF78C
:1013200077BC00BFF4040020002070478180704724
:10133000C180704701817047418170477047704795
:1013400070477047704710B4C4880368121B8488C4
:101350005B6D091B12B25DF8044B09B218474FF6DA
:10136000FF7383814FF0FF3303621368C361106022
:101370007047002070478B8883800120704770473A
:1013800080F82610704790F82600704710B50022AC
:10139000B1F90840B1F90A10028042808480C1800E
:1013A00010BD0022028042808280C2807047017797
:1013B000704780ED080A704780F82410704780F865
:1013C0002510704701207047983070478C30704767
:1013D000843070477047704770470000034B90227D
:1013E00083F85A2383F85823704700BF00E100E0D8
:1013F000094A0A49D3680A48C3F30A03013B9BB26E
:101400000B801169C1F30A01013901801364536B28
:1014100043F0010353637047006801408A1B0020BA
:10142000881B0020014BD3F8AC00704700680140D6
:10143000024B0122C3F8AC105A62704700680140A9
:1014400010B52C21044620F0FBF9204610BD10B544
:10145000BC21044620F0F4F9204610BD70B50446C6
:1014600008F0D7F923689D6E0DF05CFF0146204619
:10147000A8472368054AD3F88C502046AC46002381
:10148000BDE87040A2F51631604700BF00B004D03F
:1014900008F0A6B908F0B0B908F06CB908F0DBBAEA
:1014A00090F8252012B103685B691847704790F8DF
:1014B00025201AB190F8242002B11860704700006E
:1014C000034B4FF080629A604FF080729A607047D1
:1014D00000E100E0084B4FF08062C3F88820BFF3C2
:1014E0004F8FBFF36F8F4FF08072C3F88820BFF328
:1014F0004F8FBFF36F8F704700E100E070B500239E
:10150000124E8380124B0360336893F858200546CF
:101510000AB1D86C00B998680368DB6A98473368E9
:10152000B0FA80F4D86C640930B10368DB6A98477C
:10153000002808BF44F001042CB9064B064A0748AE
:101540002C2121F0B9F8284670BD00BF0C2D0120D8
:10155000F84502082B3B0208893B0208C23B0208FF
:1015600070B5254E3568BFF35B8F15F0010540D18E
:10157000304620F067F900283BD0204C204B2561F5
:1015800004F13400C4E90035C4E90255E584A562DC
:10159000A5850FF014FC04F158000AF0C1FC194BAA
:1015A000A3652046184B40F8843BFFF7A7FF174B75
:1015B000C4F884302433C4F88C304FF4C803C4E931
:1015C00028350023C4F8AC30C4F8B030C4F8B430C7
:1015D000C4F8B8300E480F4BC4F89050C4F89C5073
:1015E000C4F8A850C4F8983021F084F8304620F0B0
:1015F00035F9024870BD00BF8C1B0020901B0020F5
:10160000AC500208184602089046020860500208D2
:10161000D91300084050020838B5184C23685BB352
:10162000174B184A1B6C11888B4216D1164B198820
:1016300004F0FCFA236893F86A200025013283F84D
:101640006A2083F87C50FFF7B7FA206808F05EFE46
:101650002846BDE83840FFF7F7B804F0E7FA2468F9
:10166000236820461B6A9847012384F87C300020B9
:10167000BDE83840FFF712B938BD00BF0C2D01207E
:10168000006801408A1B0020881B002007B5064B1C
:10169000ADF806001B68054801220DF1060105F0B2
:1016A00065F803B05DF804FB0C000020901C0020DE
:1016B00008B5642005F01AFDFBE7000030B595B0D1
:1016C000102200210AA821F0FEF91422002103A80B
:1016D00021F0F9F900241E4B01941A6C42F080525B
:1016E0001A641B6C03F080530193019B194B029405
:1016F0001A6842F440421A601B6803F440430293A4
:101700000122029B4FF48033CDE9082302254FF4D8
:1017100080030821CDE90E534FF4B473CDE91013C3
:1017200008A804231393129504F0D8FA04F09CFA45
:101730000F23CDE903354FF4A0504FF48053CDE98A
:101740000603052103A8059404F0A4FC15B030BDE0
:10175000003802400070004080B59AB003F0D8F91C
:10176000FFF7ACFF142200210DA821F0ACF90024F2
:10177000C94B00941A6BC948C94DDFF85C8342F02D
:1017800010021A631A6B02F010020092009A019480
:101790001A6B42F020021A631A6B02F020020192C7
:1017A000019A02941A6B42F080021A631A6B02F0DB
:1017B00080020292029A03941A6B42F004021A63A6
:1017C0001A6B02F004020392039A04941A6B42F01B
:1017D00001021A631A6B02F001020492049A059442
:1017E0001A6B42F002021A631A6B02F002020592AF
:1017F000059A06941A6B42F040021A631A6B02F0C3
:1018000040020692069A07941A6B42F008021A6385
:101810001B6B03F00803224607933C21079B03F050
:10182000FDFBA0480122022103F0F8FB22469D485F
:10183000042103F0F3FB22469B484FF4405103F090
:10184000EDFB01263C23CDE90D3694480F9403238C
:101850000DA90227109303F0F7FA92480DA9CDE9DC
:101860000D76CDE90F4403F0EFFA04238D480DA95E
:10187000CDE90D36CDE90F4703F0E6FA4FF44053BA
:1018800089480DA9CDE90D36CDE90F4703F0DCFA03
:101890000DA94FF4C0438548CDE90D36CDE90F477A
:1018A00003F0D2FA8248834B036003F0C3F9DFF8F8
:1018B0002CE2814B2C62C5E900E328464FF48043BB
:1018C000C5E90434C5E90244C5E9064403F0B4FDA2
:1018D0001021284603F0F8FF21462846774D04F0F2
:1018E00012F84FF48273C5E900834FF4007918238E
:1018F000C5E9069328460A23C5E90244C5E904441C
:10190000C5E90844AC62EB6204F0D4FE8F232246A2
:10191000394664488DF824308DF8344003F07EFB5E
:1019200032464FF47A7309A9284604F01FFF4FF49A
:101930007A7332460DA9284605F0C4F83246394676
:1019400058485F4D03F06AFB9DF83430D32B04BF39
:101950005C4B1E705C4B0126C5E90036102240230B
:101960000024C5E904234FF4C073C5E906344FF4DD
:101970000063C5E908344FF4005302274FF004090F
:10198000AB624FF0030A07230DA92846CDE90D737A
:10199000CDE90F934FF00808C5E90249CDE911A739
:1019A000139704F06BFD4FF6FF7209A92846CDE9A5
:1019B0000A86089409960C9404F080FD304603F0E2
:1019C000D3F84FF6FF7209A92846CDE90978CDE989
:1019D0000B6404F073FD4FF6FF7209A92846CDE9A8
:1019E00009A8CDE90B9404F069FD4FF40C7308933A
:1019F000089B0C934FF6FF7209A92846CDE9099878
:101A00000B9604F05BFD40F26A51284604F074FD29
:101A100034220DEB0200214621F055F82B4D2C4BC2
:101A20002C61C5E900340923C5E905361D23C5E944
:101A3000073A40F20D1140F24313C5E9091340F291
:101A4000171040F24713C5E90B032846C5E90244C5
:101A5000AC8685F8364003F0F1FFFF214FF4806C2F
:101A6000F022CDE912140521CDE914C14FF4A07381
:101A70000DA9CDE90E24CDE9164228462246154D82
:101A80001893CDE910370D94ADF864408DF8664099
:101A900004F09FF824E000BF00380240001002402C
:101AA000901D002000080240000C02400018024077
:101AB000241E002000300240A0860100901C00205F
:101AC0005C1C0020501C0020400100A0E81C0020ED
:101AD000006801404C1C002000500140005C0040A8
:101AE000174B2B601B6898472B68164DDB6898478F
:101AF000154B2846C5E90034C5E90274C5E90A4713
:101B0000C5E90C4403F0A6F83146284603F058F91D
:101B1000FEF7CEFDFEF7CBFD05F078FA0B4A0C4838
:101B2000214605F09FFA0B4B0B4A186021460B48E3
:101B300005F098FA0A4B186005F07AFAFEE700BF44
:101B400014000020E41D002000B00240F846020806
:101B5000B1160008581C0020D4460208BF06000831
:101B6000541C0020704770477FB5094B8DF8172033
:101B70001B6802930DF117020123009201930A469C
:101B80000146044803F000FD07B05DF804FB00BF08
:101B900010000020901D00207FB500238DF8173025
:101BA000084B1B6802930A4601230DF117010091AF
:101BB00001930146044803F077FD9DF8170007B034
:101BC0005DF804FB10000020901D00201FB5084C9C
:101BD00024680092CDE901340A46012301460548F4
:101BE00003F062FD003818BF012004B010BD00BF33
:101BF00010000020901D002002F0B6BF10B5064C6A
:101C000000222046042103F009FA20460122BDE803
:101C10001040042103F002BA0008024038B50B4D11
:101C2000044601220A484FF4005103F0F7F900225C
:101C30000421284603F0F2F92046FFF727FD284645
:101C40000122BDE83840042103F0E8B90008024051
:101C5000000C024038B50B4D044600220A484FF4F0
:101C6000005103F0DBF900220421284603F0D6F9E5
:101C70002046FFF70BFD28460122BDE8384004212D
:101C800003F0CCB900080240000C0240F7B5144E36
:101C9000144F05460C4630460022042103F0BEF9DD
:101CA00000224FF40051384603F0B8F92846FFF7F8
:101CB000EDFC0D4B0D481B68224601A904F002FF04
:101CC000384601224FF40051019C03F0A7F9304639
:101CD0000122042103F0A2F9204603B0F0BD00BFA9
:101CE00000080240000C02400C000020901C002064
:101CF00002F03ABF0268034B9A4201D102F022BFC0
:101D0000704700BF001000407047000082B00E4BCB
:101D100000220092596C41F480415964596C01F4DD
:101D20008041009100990192196C41F08051196431
:101D30001B6C03F080530193019B0F216FF0010096
:101D400002B002F037BF00BF003802400268094B02
:101D50009A4282B00BD100230193074B1A6B42F4D5
:101D600080521A631B6B03F480530193019B02B0F2
:101D7000704700BF003002400038024007B50F4BEB
:101D800002689A4216D10022A3F5F0430192196B22
:101D900041F4000119631B6B03F400030193052157
:101DA0005A20019B02F006FF5A2003B05DF804EBB5
:101DB00002F032BF03B05DF804FB00BF00B0024088
:101DC0002DE9F043044689B01422002103A820F035
:101DD0007AFE2268244B9A4243D1244C24480025A1
:101DE0000095236B43F004032363236B03F0040388
:101DF0000093009B0195236B43F001032363236B46
:101E000003F001030193019B4FF012094FF400739B
:101E10004FF001080327042603A9CDE90339CDE9D2
:101E20000587079603F010F84FF480731148079662
:101E300003A9CDE90339CDE9058703F005F802953B
:101E4000236C43F400032364236C03F40003029324
:101E5000029B236A43F400032362236A23F40003F2
:101E6000236209B0BDE8F083005C00400038024006
:101E70000008024000000240F0B599B00446142268
:101E8000002107A820F01FFE30220DEB02000021E8
:101E900020F019FE22685E4B9A4240F0B78008237A
:101EA0000C93C0231093042312930CA84FF4003317
:101EB000159304F0B7F908B1FFF726FF554B5648C4
:101EC000002400945A6C42F080625A645A6C02F00A
:101ED00080620092009A01941A6B42F020021A6309
:101EE0001A6B02F020020192019A02941A6B42F0DE
:101EF00001021A631A6B02F001020292029A039421
:101F00001A6B42F002021A631A6B02F00202039289
:101F1000039A04941A6B42F040021A631A6B02F09F
:101F200040020492049A05941A6B42F004021A6368
:101F30001A6B02F004020592059A06941A6B42F09D
:101F400008021A631B6B03F00803069302250E2692
:101F5000069B0B964FF4806307A9CDE90735CDE9C1
:101F6000094502F071FF41F658032C480B9607A96A
:101F7000CDE907350927CDE9094502F065FF0323BF
:101F800027480B9707A9CDE90735CDE9094502F0A8
:101F90005BFF4FF4706322480B9607A9CDE9073524
:101FA000CDE9094502F050FF4FF40C631D480B9634
:101FB00007A9CDE90735CDE9094502F045FFC02362
:101FC00019480B9607A9CDE90735CDE9094502F077
:101FD0003BFF082315480B9607A9CDE90735CDE946
:101FE000094502F031FF4FF4A0530E480B9707A9A3
:101FF000CDE90735CDE9094502F026FF58202246F4
:10200000052102F0D7FD582002F006FE19B0F0BD00
:102010000068014000380240001402400000024005
:10202000000402400018024000080240000C024078
:1020300010B5044688B01422002103A820F043FD07
:102040002268144B9A4223D103F568430021019181
:102050005A6C114842F480125A645A6C02F480128D
:102060000192019A02911A6B42F020021A631B6BD3
:1020700003F020030293029B4FF4607202230321BA
:10208000CDE903230523CDE9061303A902F0DCFE05
:1020900008B010BD00500140001402402DE9F0418D
:1020A00086B0002303932B4B1C68002C4FD14FF0BC
:1020B0000108C3F80080284B00949A6B274842EA35
:1020C00008029A639B6B03EA080300930227032626
:1020D0000C25009B01A94FF63F03CDE90137CDE95F
:1020E000046502F0B1FE1E48059501A9CDE90187FE
:1020F000CDE9034602F0A8FE48F2331319480595CE
:1021000001A9CDE90137CDE9034602F09DFE4FF666
:1021100083731548059501A9CDE90137CDE903463B
:1021200002F092FE4CF203731048059501A9CDE927
:102130000137CDE9034602F087FE60230C48059580
:1021400001A9CDE90137CDE9034602F07DFE06B0D5
:10215000BDE8F0812C1E002000380240001402402F
:10216000000802400018024000100240000C02402B
:102170000004024070B588B000230293204B1A6C13
:1021800042F010021A641B6C03F010030293054620
:1021900001A903A8029B04F027F8069B4BBB04F09F
:1021A00013F8184E184B336040F2E733F360174BC7
:1021B000B0FBF3F3013B7360304600233361B3603F
:1021C000B36104F04FFE044680B9304604F020FDB0
:1021D000044658B9362002F01FFD0F2D0DD82246B7
:1021E0002946362002F0E6FC094B1D60204608B067
:1021F00070BD03F0E9FF4000D3E70124F6E700BF1C
:1022000000380240301E00200010004040420F0005
:102210007C0000207047FEE7FEE7FEE7FEE7704720
:10222000014804F033BD00BF301E0020014803F018
:1022300073BC00BFE81C0020014802F037BD00BF9E
:10224000E41D00200120704708B520F0DFFC1623B4
:1022500003604FF0FF3008BD08B520F0D7FC16230F
:102260000360FEE770B50D4614460E46731B9C4294
:1022700001DC204670BDAFF3008006F8010BF5E7E6
:1022800070B50D4614460E46731B9C4201DC204679
:1022900070BD16F8010BAFF30080F5E74FF0FF308B
:1022A00070474FF400534B60002070470120704787
:1022B000002070470A4A116808B5034609B9094960
:1022C00011601068694603448B4206D920F09EFCD9
:1022D0000C2303604FF0FF3008BD1360FCE700BF24
:1022E000781E0020503A0120704710B504210446A2
:1022F0001FF0A6FA204610BD012908B506D0022914
:1023000008D059B901F040FF006808BD01F03CFF5A
:102310004068FAE701F038FF8068F6E70020F4E74C
:1023200000487047304702081120704713B5002459
:1023300051B1036801948DF8034001AA9C680DF126
:102340000303A04702B010BD0846FBE7C0897047F1
:10235000008A7047C088704780887047807A00F094
:102360007F007047807AC0097047002070470000E6
:102370009FED010A704700BF00000000806A7047AF
:102380007047704770477047704770477047704795
:102390007047704770477047704770477047704785
:1023A000704770477047704770477047704730B448
:1023B000C26844685510034604EB6200D20748BF68
:1023C00062599B6830BC48BFD358184703464068E1
:1023D00030B19A681AB9D86800F00100704701203E
:1023E000704730B4C26844685510034604EB62007D
:1023F000D20748BF62599B6830BC48BFD3581847C2
:102400000346406830B19A681AB9D86800F00100F4
:1024100070470120704790F82D3080F86030704789
:1024200090F82D3080F8903080F85C30704790F84C
:102430002D3080F85C3070470146343091F82C30F4
:1024400013B162310AF081BA6031FBE710B504467E
:10245000683094F82C303BB104F166010AF075FA4B
:102460002046FFF7E9FF10BD04F16401F6E70146DD
:10247000383091F82C3013B136310AF066BA343165
:10248000FBE710B5642104461FF0DAF9204610BDC1
:1024900010B5942104461FF0D3F9204610BD10B5A5
:1024A000642104461FF0CCF9204610BD10B5102160
:1024B00004461FF0C5F9204610BD10B51021044692
:1024C0001FF0BEF9204610BD10B540F2FC61044675
:1024D0001FF0B6F9204610BD00F2CC53994270B5FA
:1024E00004460D4603D10CF01DFF00F097FD04F5E6
:1024F000C6639D4203D123682046DB6A984704F5F2
:10250000A7639D4203D1236820465B6B984704F282
:10251000A4439D4203D1236820469B6B984704F552
:1025200082639D4203D123682046DB6B984704F504
:102530005F739D4203D1236820461B6C984704F5C6
:102540003A739D4203D1236820465B6C984704F59B
:1025500015739D4203D1236820469B6C984704F570
:10256000E0739D4203D123682046DB6C984704F555
:1025700096739D4203D1236820461B6D984704F152
:1025800098039D4205D1236820465B6DBDE87040ED
:10259000184770BD10B50446006B50B10368DB6886
:1025A000984730B1206B036821469B68BDE8104016
:1025B000184710BD00F294628A4202D103681B6B77
:1025C0001847704770B50D7990F82C3004463DB926
:1025D0003BB123682046D3F88830BDE870401847E7
:1025E0007BB1B5FA85F35B0984F82C30236820466B
:1025F000D3F88C309847236820465B699847002DB4
:10260000E7D070BD0B7970B590F82C6004460D468C
:102610000BB916B170BD002EFCD0B3FA83F35B0981
:1026200084F82C3023682046D3F88C3098472368F0
:1026300020465B699847002EECD02B79012BE9D11D
:1026400023682046D3F88830BDE870401847000062
:10265000074A02600022C0E90122C0E90322C0E962
:102660000522C0E907224FF480728284704700BFC0
:10267000AC53020870B5036804461B6B15469847B7
:102680002368294620465B6BBDE8704018470B88DD
:102690002DE9F041A0F864301388B0F90850A0F893
:1026A000663004461046904610F02CF8B4F90A3013
:1026B000074603EBD3734046C3F34F0610F056F8BA
:1026C00005EBD575C5F34F0500EBD07007EBD77759
:1026D000A6EB6002A5EB670104F1680012B209B233
:1026E000FFF7C8FF23682046D3F88C30BDE8F041DF
:1026F00018470B882DE9F04183861388B0F90850FC
:10270000C3860446104690460FF0FCFFB4F90A3029
:10271000074603EBD3734046C3F34F0610F026F889
:1027200005EBD575C5F34F0500EBD07007EBD777F8
:10273000A6EB6002A5EB670104F1380012B209B202
:10274000FFF798FF23682046D3F88C30BDE8F041AE
:10275000184770B5036804469B6B15469847236875
:1027600029462046DB6BBDE87040184738B5044663
:102770001D46FFF77FFFBDF9102029462046FFF7D1
:10278000E8FF38BD0B8870B5A0F8603005461388A7
:1027900025F8623F044628460FF0B4FF0646284657
:1027A0000FF0E4FF314602462046FFF7D2FF2368D0
:1027B0002046D3F88C30BDE87040184738B5262243
:1027C00004460D46002120F07EF92046FFF740FF29
:1027D000064B23602B88E384FF23204684F82830AF
:1027E00029460AF0B2F8204638BD00BF68520208F8
:1027F000F8B5194B018F1B888B4206462AD9174B17
:102800001B682BB9164B174A17486C211FF054FF51
:1028100013F81120154B1B6853F82250144B1868FD
:1028200001F0A2FC2B6807469B6B284698472B6853
:1028300004469B6C3946284698472B6814FB00F4E5
:102840005B6A394628469847A4B223181BB2A6F8FB
:102850004630F8BD0023FAE7682D0120642D0120E1
:10286000393C02087B3C0208B63C02086C2D012072
:10287000702D0120F7B50446FFF7EAFE4FF47F43C1
:102880002646A3850123002784F82430174BA7622E
:10289000276346F8343B4FF6FF7501A93046ADF883
:1028A0000450FFF78BFF3A4639463046A4F8605093
:1028B000A4F86250FFF7DEFE3146204606F0BEFC6B
:1028C00004F168060A4B236001A9A4F86450A4F837
:1028D00066503046ADF80450FFF770FF2046314691
:1028E00006F0ACFC204603B0F0BD00BF8C480208E7
:1028F0002C49020837B50446FFF7AAFE4FF47F4281
:102900000023A2850122A36284F8242023630A4ABB
:1029100022604FF0FF3304F13805636301A92846B4
:10292000ADF80430FFF74AFF2046294606F086FC42
:10293000204603B030BD00BFD04902082DE9F04F5A
:10294000044691B0274600250EF0F0FCDD4BE56310
:1029500047F8403B26222946384620F0B4F838464E
:10296000FFF776FED84B236404F16C08FF230FA910
:1029700084F86630A5664FF6FF734046ADF83C30EC
:10298000FFF71CFF04F1980318460293FFF772FF4C
:1029900004F5967318460393FFF76CFF04F5E07394
:1029A00018460493FFF766FF04F515731846059360
:1029B000FFF760FF04F53A7318460693FFF75AFFD6
:1029C00004F55F7318460793FFF754FF04F582631D
:1029D00018460893FFF74EFF04F2A44318460993E4
:1029E000FFF748FF04F5A76318460A93FFF742FF75
:1029F00004F2CC5318460C93FFF77CFF04F5C66332
:102A000018460D93FFF776FF04F2946318460B9374
:102A10000AF0DCF8AD4BC4F8DC36AD4BC4F8E43654
:102A2000AC4BC4F8EC36AC4BC4F8F4364FF4A0739E
:102A30002A46C4F8E046C4F8E856C4F8F046C4F89C
:102A4000F856294600933846F023261DFFF78EFEE0
:102A50004FF07F43A3663946304606F0EFFB6FF038
:102A6000460240466FF01901FFF704FE04230FA948
:102A70004046ADF83C3009F068FF414630464FF023
:102A8000010906F0DBFB0298ADF838500FAA0EA939
:102A9000ADF83C90FFF776FE2A46294604F1CC00BB
:102AA0000B274FF00E0BFFF7E5FD0298ADF83C70D9
:102AB0000FAA0EA94FF03C0A04F2DC68ADF838B05A
:102AC000FFF7E5FD4FF00613C4F804310298C4F88F
:102AD000C8805346D222CDF800A0A921FFF746FEB8
:102AE0000299304606F0AAFB0398ADF838500DEB7A
:102AF0000A020EA9ADF83C90FFF744FE2A4629468B
:102B000004F5B070FFF7B6FD0398ADF83C700DEB1F
:102B10000A020EA9ADF838B0FFF7B9FD4FF0061361
:102B2000C4F898310398C4F85C815346D222CDF89A
:102B300000A05C21FFF71AFE0399304606F07EFBE9
:102B40000498ADF838500DEB0A020EA9ADF83C9090
:102B5000FFF718FE2A46294604F5FA70FFF78AFDAA
:102B60000498ADF83C700DEB0A020EA9ADF838B030
:102B7000FFF78DFD4FF00613C4F82C320498C4F80B
:102B8000F0815346D2223946CDF800A0FFF7EEFD82
:102B90000499304606F052FB0598ADF838500DEB1D
:102BA0000A020EA9ADF83C90FFF7ECFD2A46294633
:102BB00004F52270FFF75EFD0598ADF83C700DEB53
:102BC0000A020EA9ADF838B0FFF761FD4FF0061309
:102BD000C4F8C0320598C4F8848253468D22CDF8DB
:102BE00000A0A921FFF7C2FD0599304606F026FB9B
:102BF0000698ADF838500DEB0A020EA9ADF83C90DE
:102C0000FFF7C0FD2A46294604F54770FFF732FD5D
:102C10000698ADF83C700DEB0A020EA9ADF838B07D
:102C2000FFF735FD4FF00613C4F854330698C4F887
:102C3000188353468D22CDF800A05C21FFF796FD46
:102C40000699304606F0FAFA0798ADF838500DEBC1
:102C50000A020EA9ADF83C90FFF794FD2A462946DA
:102C600004F56C70FFF706FD0798ADF83C700DEBAE
:102C70000A020EA9ADF838B0FFF709FD4FF00613B0
:102C8000C4F8E8330798C4F8AC8353468D2239461C
:102C9000CDF800A0FFF76AFD0799304606F0CEFA9E
:102CA0000898ADF838500DEB0A020EA9ADF83C902B
:102CB000FFF768FD2A46294604F24440FFF7DAFC94
:102CC0000CE000BFA04A020800520208704A020845
:102CD000D9240008884A0208B52500080898ADF8EC
:102CE0003C700DEB0A020EA9ADF838B0FFF7CFFC2F
:102CF0004FF00613C4F87C340898C4F84084534657
:102D00004622CDF800A0A921FFF730FD08993046F2
:102D100006F094FA0998ADF838500DEB0A020EA9A6
:102D2000ADF83C90FFF72EFD2A46294604F59B603E
:102D3000FFF7A0FC0998ADF83C700DEB0A020EA954
:102D4000ADF838B0FFF7A3FC4FF00613C4F8103508
:102D50000998C4F8D48453464622CDF800A05C21DB
:102D6000FFF704FD0999304606F068FA0A98ADF8B5
:102D700038500DEB0A020EA9ADF83C90FFF702FDAA
:102D80002A46294604F26C50FFF774FC0A98ADF805
:102D90003C700DEB0A020EA9ADF838B0FFF777FCD6
:102DA0004FF00613C4F8A4350A98C4F86885534652
:102DB00046223946CDF800A0FFF7D8FC0A993046E4
:102DC00006F03CFA10230C98ADF838300DEB0A02EF
:102DD0000F230EA9ADF83C30FFF78BFC32230C9883
:102DE000C4F80856C4F8FC854FF487720093BE21DE
:102DF000FFF7BCFC0C99304606F020FA0A230D9828
:102E0000ADF838300DEB0A0209230EA9ADF83C30BD
:102E10002D27FFF76EFC4FF6FD73C4F86C360D9846
:102E2000C4F86086292340F2131229460097FFF761
:102E30009DFC0D99304606F001FA0B982A4639465A
:102E4000FFF718FC07230DEB0A020EA90B98ADF84B
:102E500038300823ADF83C3009F0B1FC0B98A4F8E9
:102E6000CC56FFF7C5FC4FF07F43C4F8D0364FF087
:102E7000FF33C4F8D43604F2EC6330460B99C4F83F
:102E8000BC3606F0DBF9204611B0BDE8F08F00BF7C
:102E9000704710B5082104461EF0D2FC204610BD34
:102EA0007047704700F598730868496803C3704716
:102EB000704770474160704770477047064BC0F8D5
:102EC0004C310023C0F8503100F5A273C0F848011E
:102ED000C0F84031704700BFFD3200080123037283
:102EE0007047704710B4C26841685410034601EB44
:102EF0006200D20748BF0A599B685DF8044B48BF7F
:102F0000D35818470346406830B19A681AB9D86850
:102F100000F0010070470120704710B50C210446F5
:102F20001EF08EFC204610BD10B5102104461EF088
:102F300087FC204610BD10B54FF4AE7104461EF05C
:102F40007FFC204610BD10B50CF0ECF90368BDE81D
:102F50001040DB6B184710B50446D0F8400158B15B
:102F60000368DB68984738B1D4F8400103689B6870
:102F700098470023C4F8403110BD0000044B1B6883
:102F800093F858200AB1D86C00B99868704700BF10
:102F90000C2D0120F8B5174604460E460CF084FAB5
:102FA000124B1C60124B2360124B0025C4E95135B3
:102FB000114BC4E953551868036801219B68C4E9A3
:102FC0004F55C4E955769847284601F091F8FFF728
:102FD000D5FF16F032FBFFF7D1FF16F0A9FBFFF784
:102FE000CDFF16F0B1FB2046F8BD00BF602D0120DB
:102FF000284B0208104B02080C2D0120064BC0F88C
:103000004C310023C0F8503100F5A273C0F84801DC
:10301000C0F84031704700BFFD320008064BC0F8D1
:103020004C310023C0F8503100F5A273C0F84801BC
:10303000C0F84031704700BFB1310008064BC0F8FE
:103040004C310023C0F8503100F5A273C0F848019C
:10305000C0F84031704700BF6530000803685B6A04
:10306000184700002DE9F14FD0E9556A0746B068CE
:1030700003681B6A984740F2FB63984205D8444BAB
:10308000444AA32144481FF017FB706803681B6A79
:1030900098470F2803D8414B3E4AA421F2E7F06835
:1030A00003681B6A98470B2803D83D4B394AA52172
:1030B000E8E70CF037F9DFF8F09004300CF057F93E
:1030C000D9F8000010B10368DB689847D9F8000010
:1030D00010B103681B689847DFF8D080D8F800006B
:1030E00010B103685B699847D7F83C0110B10368D9
:1030F0005B689847D8F8000010B103681B689847D0
:10310000D7F83C0110B103689B689847F06800212C
:10311000FFF7A4FF4FF0000B224BC0F804B00446A9
:1031200080F808B00360B068036859465B6A984746
:10313000054601F0E1F87068036859465B6A9847F4
:103140002946064601F048F8331DC7F83C61C9F826
:103150000040C8F80050CAF800302B68C6F808A034
:103160002846DB68EE639847336830461B6898470B
:10317000214628460EF086FA236820461B699847A8
:1031800023685B69204601B0BDE8F04F184700BFD7
:10319000FD3C02088B3D0208673E0208AE3E020875
:1031A000513F02087C4B0208542D0120502D012074
:1031B0002DE9F14FD0E9556A0746B06803681B6AEC
:1031C000984740F24373984205D8444B444AA321A0
:1031D00044481FF071FA706803681B6A98470F280B
:1031E00003D8414B3E4AA421F2E7F06803681B6A0A
:1031F00098470B2803D83D4B394AA521E8E70CF046
:1032000091F8DFF8F09004300CF0B1F8D9F8000034
:1032100010B10368DB689847D9F8000010B1036863
:103220001B689847DFF8D080D8F8000010B1036819
:103230005B699847D7F83C0110B103685B68984711
:10324000D8F8000010B103681B689847D7F83C0114
:1032500010B103689B689847F0680021FFF7FEFEF5
:103260004FF0000B224BC0F804B0044680F808B0C1
:103270000360B068036859465B6A9847054601F0E9
:1032800085F97068036859465B6A9847294606467F
:1032900001F0A6F8331DC7F83C61C9F80040C8F832
:1032A0000050CAF800302B68C6F808A02846DB6832
:1032B000EE639847336830461B6898472146284696
:1032C0000EF0E0F9236820461B69984723685B6984
:1032D000204601B0BDE8F04F184700BFFD3C020892
:1032E000F43F0208673E0208AE3E0208513F020862
:1032F0007C4B0208542D0120502D01202DE9F14F67
:10330000D0E9556A0746B06803681B6A9847B0F56C
:103310009C7F05D2434B444AA32144481FF0CCF97B
:10332000706803681B6A98470F2803D8404B3E4AD1
:10333000A421F2E7F06803681B6A98470B2803D8BA
:103340003C4B394AA521E8E70BF0ECFFDFF8EC90A5
:1033500004300CF00CF8D9F8000010B10368DB68F9
:103360009847D9F8000010B103681B689847DFF848
:10337000D080D8F8000010B103685B699847D7F88F
:103380003C0110B103685B689847D8F8000010B1A1
:1033900003681B689847D7F83C0110B103689B6825
:1033A0009847F0680021FFF759FE4FF0000B224BC1
:1033B000C0F804B0044680F808B00360B068036841
:1033C00059465B6A9847054600F0F0FF706803684D
:1033D00059465B6A98472946064600F0C5FF331DEB
:1033E000C7F83C61C9F80040C8F80050CAF800307E
:1033F0002B68C6F808A02846DB68EE639847336858
:1034000030461B689847214628460EF03BF9236852
:1034100020461B69984723685B69204601B0BDE8D8
:10342000F04F1847FD3C0208CC400208673E0208F6
:10343000AE3E0208513F02087C4B0208542D012089
:10344000502D0120406A7047806A704770478A8813
:103450000B8810B5D20A4C88C1699BB251F8220082
:1034600043EA0443184410BD10B50446BAB1107BBA
:1034700068B1537BD27A1B0203F4E0631A43236AD8
:1034800003EB82031A888A4202D193F9020010BD2D
:1034900005D8013880B204330028F3D1F7E70020C3
:1034A000F5E710B52C2104461EF0CAF9204610BDE0
:1034B00030B58BB00446BDF860500895BDF85C503F
:1034C00007959DF8505006959DF84C5005959DF830
:1034D000485004959DF8445003959DF8405002953E
:1034E0009DF83C500195BDF8385000950DF024FD35
:1034F000064B2360159BE361169B2362199B636255
:103500001A9BA36220460BB030BD00BFA04B02083F
:1035100070477047704730B4C2684468551003461E
:1035200004EB6200D20748BF62599B6830BC48BFB9
:10353000D35818470346406830B19A681AB9D8681A
:1035400000F0010070470120704710B510210446BB
:103550001EF076F9204610BD10B54FF49C7104465C
:103560001EF06EF9204610BDE030884208B505D146
:103570000BF0D8FEBDE80840FFF750BD08BD0000C5
:103580000022C0E90122C0E90322C0E90522C0E906
:1035900007224FF480728284014A0260704700BFA4
:1035A000084C02082DE9F04F044689B02646002554
:1035B0000DF0BCFE644BE56346F8403B4FF0260B34
:1035C0005A46294630461FF07EFA3046FFF7D8FFAC
:1035D00004F16C085D4B2364FF275A46294684F8A2
:1035E0006670A5664FF6FF794046ADF818901FF05B
:1035F0006AFA4046FFF7C4FF554BE366BDF8183042
:10360000A4F8923084F8947006A904F19807404613
:1036100009F09BF95A46294638461FF054FA3846B5
:10362000FFF7AEFF4B4BC4F898304B4BC4F8C0309B
:103630004FF47F03A4F8C490C4F8CC3004F1E0093F
:103640004FF0FF33C4E93635C4F8C850A4F8D05061
:10365000C4F8D450484609F0B9FA404AC4E94A24AB
:103660003F4A2946C4E94C2530462A46FFF702F86E
:103670003046F021FDF75EFE30464FF4A071FDF7B5
:103680005BFE04F1040A4FF07F42A26631465046C9
:1036900005F0D4FD40466FF03E026FF00F01FEF7DB
:1036A000E9FF052206A94046ADF8182009F04DF9BA
:1036B0004146504605F0C2FD594638461422FEF7F1
:1036C000D9FF6E464FF07F42C4F8C820A4F8CC5012
:1036D0003946304608F07CFD96E8070004F1D40C2A
:1036E0008CE807001C4B0693042206A93846ADF867
:1036F0001C2009F007F83946504605F09FFD294681
:103700004846BF22FEF7B6FF022205A9ADF81420F5
:10371000032506AA4846ADF8185009F050F8484667
:10372000A4F81851FFF764F84FF0FF33C4E94733AA
:1037300004F594735046C4F80831494605F07EFDFF
:10374000204609B0BDE8F08F884C020800520208FC
:103750006852020870510208004B0208704C0208BF
:103760006935000870477047704770477047704769
:103770007047704770477047704770477047704791
:103780007047704730B4C26844685510034604EB74
:103790006200D20748BF62599B6830BC48BFD3580B
:1037A00018470346406830B19A681AB9D86800F0E3
:1037B000010070470120704730B4C268446855105A
:1037C000034604EB6200D20748BF62599B6830BCD5
:1037D00048BFD35818470346406830B19A681AB9B1
:1037E000D86800F0010070470120704710B5102123
:1037F00004461EF025F8204610BD10B510210446E1
:103800001EF01EF8204610BD10B540F2447104466B
:103810001EF016F8204610BD00F19803994270B5CD
:1038200004460D4603D10BF07DFDFFF7E7FB04F2E4
:103830009C539D4203D1236820461B6B984704F597
:10384000A1639D4203D1236820465B6B984704F235
:1038500074439D4203D123682046DB6B984704F5EF
:1038600078739D4203D1236820461B6C984704F56A
:1038700053739D4203D1236820465B6C984704F53F
:103880002E739D4203D1236820469B6C984704F514
:1038900009739D4203D123682046DB6C984704F5E9
:1038A000C8739D4203D1236820461B6D984704F1DD
:1038B000FC039D4203D1236820465B6D984704F5C5
:1038C000D8639D4205D1236820469B6DBDE87040BA
:1038D000184770BD00F5C663994270B504460D46A1
:1038E00003D10BF01FFDFFF7A9FB04F5CF639D4249
:1038F00005D1236820469B6BBDE87040184770BD1A
:103900002DE9F04F044691B0274600250DF00EFD3D
:10391000DE4BE56347F8403B2622294638461FF038
:10392000D2F83846FEF794FED94B236404F16C08B4
:10393000FF230FA904F1980984F86630A5664FF6B5
:10394000FF734046ADF83C30FEF738FF4846FEF7BF
:10395000D1FF04F1FC0318460293FEF78BFF04F538
:10396000C87318460393FEF785FF04F509731846DC
:103970000493FEF77FFF04F52E7318460593FEF7B8
:1039800079FF04F5537318460693FEF773FF04F5A9
:10399000787318460793FEF76DFF04F274431846D8
:1039A0000893FEF767FF04F5A16318460993FEF735
:1039B00061FF04F29C5318460A93FEF75BFF04F57F
:1039C000C66318460B9309F001F904F5CF63184656
:1039D0000C9309F0FBF804F5D86318460D93FEF735
:1039E00089FFAC4BC4F82437AB4BC4F82C37AB4B36
:1039F000C4F83437AA4BC4F83C374FF4A0732A46B6
:103A0000C4F82847C4F83057C4F83847C4F84057BA
:103A1000294600933846F023261DFEF7A7FE4FF0F7
:103A20007F43A3663946304605F008FC6FF0460236
:103A300040466FF01901FEF71DFE04230FA9404612
:103A4000ADF83C3008F081FF4146304605F0F6FB0A
:103A50000D23ADF838300FAA0C230EA9484604F206
:103A60002478ADF83C30FEF744FE3223C4F8D4503D
:103A7000C4F8C8804FF4877200934846BE21FEF711
:103A800075FE494630464FF0010905F0D7FB029814
:103A9000ADF838500FAA0EA9ADF83C90FEF772FEB3
:103AA0002A46294604F598700B274FF00E0AFEF7B8
:103AB000E1FD0298ADF838A00FAA0EA94FF03C0B1B
:103AC000ADF83C70FEF7E3FD4FF00613C4F8683123
:103AD0000298C4F82C815B46CDF800B0D222A9210F
:103AE000FEF744FE0299304605F0A8FB0DEB0B02F1
:103AF0000398ADF838500EA9ADF83C90FEF742FEA1
:103B00002A46294604F5E270FEF7B4FD0DEB0B02E0
:103B10000398ADF838A00EA9ADF83C70FEF7B7FDDC
:103B20004FF00613C4F8FC310398C4F8C0815B461B
:103B3000CDF800B0D2225C21FEF718FE0399304682
:103B400005F07CFB0DEB0B020498ADF838500EA984
:103B5000ADF83C90FEF716FE2A46294604F516708D
:103B6000FEF788FD0DEB0B020498ADF838A00EA906
:103B7000ADF83C70FEF78BFD4FF00613C4F89032A1
:103B80000498C4F854825B46CDF800B0D22239467E
:103B9000FEF7ECFD0499304605F050FB0DEB0B02EF
:103BA0000598ADF838500EA9ADF83C90FEF7EAFD47
:103BB0002A46294604F53B70FEF75CFD0DEB0B022F
:103BC0000598ADF838A00EA9ADF83C70FEF75FFD82
:103BD0004FF00613C4F824330598C4F8E8825B4616
:103BE000CDF800B08D22A921FEF7C0FD0599304621
:103BF00005F024FB0DEB0B020698ADF838500EA92A
:103C0000ADF83C90FEF7BEFD2A46294604F56070EB
:103C1000FEF730FD0DEB0B020698ADF838A00EA9AB
:103C2000ADF83C70FEF733FD4FF00613C4F8B8331F
:103C30000698C4F87C835B46CDF800B08D225C21E9
:103C4000FEF794FD0699304605F0F8FA0DEB0B02ED
:103C50000798ADF838500EA9ADF83C90FEF792FDEC
:103C60002A46294604F21440FEF704FD0DEB0B0230
:103C70000798ADF838A00EA9ADF83C70FEF707FD27
:103C80004FF00613C4F84C340CE000BFEC4C0208B3
:103C900000520208BC4C020819380008D44C020833
:103CA000D53800080798C4F810845B46CDF800B0FA
:103CB0008D223946FEF75AFD0799304605F0BEFAC7
:103CC0000DEB0B020898ADF838500EA9ADF83C90FA
:103CD000FEF758FD2A46294604F59560FEF7CAFC12
:103CE0000DEB0B020898ADF838A00EA9ADF83C70AA
:103CF000FEF7CDFC4FF00613C4F8E0340898C4F882
:103D0000A4845B46CDF800B04622A921FEF72EFD23
:103D10000899304605F092FA0DEB0B020998ADF8C0
:103D200038500EA9ADF83C90FEF72CFD2A462946E6
:103D300004F23C50FEF79EFC0DEB0B020998ADF827
:103D400038A00EA9ADF83C70FEF7A1FC4FF00613A9
:103D5000C4F874350998C4F838855B46CDF800B0CE
:103D600046225C21FEF702FD0999304605F066FA0D
:103D70000DEB0B020A98ADF838500EA9ADF83C9047
:103D8000FEF700FD2A46294604F5BA60FEF772FCEC
:103D90000DEB0B020A98ADF838A00EA9ADF83C70F7
:103DA000FEF775FC4FF00613C4F808360A98C4F8FD
:103DB000CC855B46CDF800B046223946FEF7D6FCEE
:103DC0000A99304605F03AFA0B986FF009026FF045
:103DD0001901FEF74FFC4FF0080B06230EA90B98B4
:103DE000ADF838300FAAADF83CB008F0E8FC02227C
:103DF0004FF0FF37A4F868260B9804F2347AFEF7E8
:103E0000F7FC0B99C4F86C763046C4F87076C4F8A9
:103E100058A605F013FA0C986FF009027321FEF70B
:103E200029FC06230FAA0EA90C98ADF83830ADF87E
:103E30003CB008F0C4FC0C98A4F8B096FEF7D8FC8F
:103E40000C99C4F8B4763046C4F8B876C4F8A0A685
:103E500005F0F4F90A230D98ADF838300FAA0923BC
:103E60000EA9ADF83C30FEF744FC4FF6FD73C4F8E4
:103E7000FC362D230D98C4F8F08640F213120093FF
:103E800029462923FEF772FC30460D9905F0D6F934
:103E9000204611B0BDE8F08F7047000030B5164DD8
:103EA0002C6814F001048FB0BFF35B8F20D128463B
:103EB0001DF0C8FCE0B13F230993104B0893104B51
:103EC000104911480A940122CDE906430423CDE9A3
:103ED00003320A230093CDE90B44CDE90144059454
:103EE000FFF7E6FA09481EF005FC28461DF0B6FC6F
:103EF00005480FB030BD00BF7C1E0020B46402082E
:103F0000C064020860630208801E0020993E000819
:103F10007047000030B5174D2C6814F001048FB0C5
:103F2000BFF35B8F22D128461DF08CFCF0B13F23FC
:103F30000993114B0893114B114912480A94CDE98A
:103F4000064301220423CDE90332142300931622F1
:103F50001823CDE90B44CDE901440594FFF7A8FAF5
:103F600009481EF0C7FB28461DF078FC05480FB035
:103F700030BD00BFAC1E0020B8640208C464020853
:103F800070630208B01E0020113F00087047000057
:103F900030B5164D2C6814F001048FB0BFF35B8F61
:103FA00020D128461DF04EFCE0B13F230993104B71
:103FB0000893104B104911480A940122CDE9064399
:103FC0000423CDE9033228230093CDE90B44CDE946
:103FD00001440594FFF76CFA09481EF08BFB284654
:103FE0001DF03CFC05480FB030BD00BFDC1E0020BA
:103FF000BC640208D4640208A4640208E01E002025
:104000008D3F000800207047002070470EB403B5B4
:1040100003AB002153F8042B01930CF00BFA02B010
:104020005DF804EB03B070470CB407B504AB53F86C
:10403000042B01930CF0FEF903B05DF804EB02B021
:1040400070470000436C10B5044673B3038F2BB95F
:10405000184B194AC52119481EF02EFBC38E00EBE0
:1040600043035B8C0BB30EF066F8238F012B03D850
:10407000134B144ACB21EEE7E28E531C9BB2092B63
:10408000194688BFA3F10A0104EB410140F63F1035
:10409000498C814209D10A2B04EB420228BF00233C
:1040A00004EB4303508C588451842046BDE81040F3
:1040B0000DF044BFA4410208AD4102085842020875
:1040C000A2420208B04202080DF0FFBE10B586B051
:1040D00002AC84E806001A460AAB05930193099BDB
:1040E00000932146089B0AF0BBFC06B010BD0000FF
:1040F00038B518BB124B13481C681349B4B1226879
:1041000022440260626822440A60A26814440F4B91
:1041100000221A8000F038F8054600F033F80C4B06
:104120001C600C4B1D600C4B188007E00B4B0360B0
:104130000B4B0B600B4B1C68002CE8D138BD00BF4B
:10414000181F0020101F00200C1F0020141F00202B
:10415000642D01206C2D0120682D0120EC640208E3
:10416000D86402083C650208044B1B6853F8210020
:10417000034B1B6803EB4000704700BF0C1F00207F
:10418000101F002005207047004870471C1F0020AA
:1041900010B5FFF7BFFE044C2060FFF7F9FE60602A
:1041A000FFF77CFEA06010BD1C1F002010B500248E
:1041B00004600C6014601C6010BD704704387047C8
:1041C000704710B5102104461DF03AFB204610BD83
:1041D000A0F10400F5E7000000228260024A0260BC
:1041E00018324260C1607047504D020870470000AD
:1041F000044A1368082BDFBF581C1060024A42F8BB
:1042000023107047281F00202C1F00200368012165
:104210009B6D1847036802219B6D184703680321B3
:104220009B6D1847036804219B6D1847036805219F
:104230009B6D1847036806219B6D1847036807218B
:104240009B6D1847036808219B6D18470368092177
:104250009B6D1847034B04480021242219601EF06F
:1042600032BC00BF281F00202C1F002010B503689F
:10427000084CDB6D9847204600224FF4005100F0B7
:10428000CDFE20460022BDE810404FF4804100F0F2
:10429000C5BE00BF0018024010B5044604F070FF10
:1042A000074B08491A7804F087FF23682046DB6D26
:1042B0009847BDE8104004484FF4804100F0B3BE79
:1042C000281F00202C1F00200018024010B5034BAF
:1042D00003600446FEF769F8204610BD784D0208D9
:1042E00010B50446FFF7F2FF204640F2FC611DF0D6
:1042F000A7FA204610BD000010B50446FEF71EFBCD
:10430000014B2360204610BD784D0208FEF74EB8E1
:10431000704710B54FF4AE7104461DF091FA204677
:1043200010BD10B50446D0F8580100F042F92046FF
:10433000BDE810400BF078B810B50446FEF72AFE31
:10434000014B2360204610BDE04D02087047043841
:104350007047704710B5102104461DF071FA2046D1
:1043600010BDA0F10400F5E700228260024A02605D
:1043700018324260C1607047344E02087047000036
:1043800010B5034B03600446FFF7C3F8204610BD89
:104390005C4E020810B50446FFF7F2FF20464FF4CA
:1043A0009C711DF04DFA204610BD000010B504466A
:1043B000FFF7F8F8014B2360204610BD5C4E020861
:1043C000FFF7A8B8704704387047704710B5102140
:1043D00004461DF035FA204610BDA0F10400F5E7B3
:1043E00000228260024A026018324260C160704757
:1043F000904E020870470000044A1368082BDFBF84
:10440000581C1060024A42F823107047501F0020C9
:10441000541F002003680121DB6D18470368022147
:10442000DB6D184703680321DB6D1847036804211F
:10443000DB6D184703680521DB6D1847036806210B
:10444000DB6D184703680721DB6D184703680821F7
:10445000DB6D184703680921DB6D1847034B0448DF
:104460000021242219601EF02EBB00BF501F002027
:10447000541F002070B50A4D0446012228464FF40F
:10448000005100F0CBFD284600224FF4804100F09F
:10449000C5FD236820461B6EBDE87040184700BF6D
:1044A0000018024070B50A4D0446012228464FF418
:1044B000804100F0B3FD284600224FF4005100F087
:1044C000ADFD236820461B6EBDE87040184700BF55
:1044D0000018024010B50368084C1B6E9847204630
:1044E00000224FF4005100F099FD20460022BDE863
:1044F00010404FF4804100F091BD00BF0018024011
:104500002DE9F041044604F03BFE064604F050FE5F
:104510000546304604F04DFE0F4B1968236888426B
:1045200004D09B6E2046BDE8F04118470029F8D022
:104530000A48002250F8047B55F82260B74208D19F
:1045400001329142F6D15B6E2046984723681B6E7C
:10455000E8E79B6EF8E700BF501F0020541F0020C3
:1045600010B5034B03600446FFF70AF9204610BD5F
:10457000B84E020810B50446FFF7F2FF204640F29D
:1045800044711DF05DF9204610BD000010B50446D1
:10459000FFF7B6F9034B23602046FFF7F2F82046F9
:1045A00010BD00BFB84E0208FFF7EBB80022026052
:1045B00070477047F02070474FF4A0707047292073
:1045C000FDF748BB2820FDF745BB08B5FDF716FBF6
:1045D000CA20FDF73FFBC320FDF720FB0820FDF7B5
:1045E0001DFB5020FDF71AFBCF20FDF733FB002009
:1045F000FDF714FBC120FDF711FB3020FDF70EFB8A
:10460000ED20FDF727FB6420FDF708FB0320FDF7F5
:1046100005FB1220FDF702FB8120FDF7FFFAE820E1
:10462000FDF718FB8520FDF7F9FA0020FDF7F6FAF3
:104630007820FDF7F3FACB20FDF70CFB3920FDF7CE
:10464000EDFA2C20FDF7EAFA0020FDF7E7FA342016
:10465000FDF7E4FA0220FDF7E1FAF720FDF7FAFA98
:104660002020FDF7DBFAEA20FDF7F4FA0020FDF741
:10467000D5FA0020FDF7D2FAB120FDF7EBFA0020C1
:10468000FDF7CCFA1B20FDF7C9FAB620FDF7E2FAD8
:104690000A20FDF7C3FAA220FDF7C0FAC020FDF7FB
:1046A000D9FA1020FDF7BAFAC120FDF7D3FA10208D
:1046B000FDF7B4FAC520FDF7CDFA4520FDF7AEFAB7
:1046C0001520FDF7ABFAC720FDF7C4FA9020FDF7DF
:1046D000A5FA3620FDF7BEFAC820FDF79FFAF220B2
:1046E000FDF7B8FA0020FDF799FAB020FDF7B2FA0D
:1046F000C220FDF793FAB620FDF7ACFA0A20FDF7C9
:104700008DFAA720FDF78AFA2720FDF787FA042003
:10471000FDF784FA2A20FDF79DFA0020FDF77EFAC6
:104720000020FDF77BFA0020FDF778FAEF20FDF777
:1047300075FA2B20FDF78EFA0020FDF76FFA0020A6
:10474000FDF76CFA0120FDF769FA3F20FDF766FAE4
:10475000F620FDF77FFA0120FDF760FA0020FDF753
:104760005DFA0620FDF75AFA2C20FDF773FAC820EF
:10477000FDF7BEFA2620FDF76DFA0120FDF74EFA8F
:10478000E020FDF767FA0F20FDF748FA2920FDF732
:1047900045FA2420FDF742FA0C20FDF73FFA0E20DF
:1047A000FDF73CFA0920FDF739FA4E20FDF736FAFD
:1047B0007820FDF733FA3C20FDF730FA0920FDF7A9
:1047C0002DFA1320FDF72AFA0520FDF727FA172006
:1047D000FDF724FA1120FDF721FA0020FDF71EFA5B
:1047E000E120FDF737FA0020FDF718FA1620FDF753
:1047F00015FA1B20FDF712FA0420FDF70FFA11201D
:10480000FDF70CFA0720FDF709FA3120FDF706FA4B
:104810003320FDF703FA4220FDF700FA0520FDF7EB
:10482000FDF90C20FDF7FAF90A20FDF7F7F9282029
:10483000FDF7F4F92F20FDF7F1F90F20FDF7EEF960
:104840001120FDF707FAC820FDF752FA2920FDF7DD
:1048500001FABDE808402C20FDF7FCB908B5FDF7CA
:10486000CDF90321D320FDF711FA80B208BD10B5B0
:10487000C4B2022203212046FDF776F90A20FDF793
:10488000BBF9204600220321FDF76EF9BDE8104078
:104890000220FDF7B1B938B50446E4B2FDF762F97C
:1048A00000212046FDF778F9012105462046FDF755
:1048B00073F940EA052080B238BD10B5C4B240217A
:1048C0002046FDF769F9030607D54C212046FDF780
:1048D00063F9003818BF012010BD01224B2120468A
:1048E000FDF742F9204600224B21FDF73DF900205B
:1048F000F2E773B50423C4B20E461546D7210DEB7B
:1049000003022046FDF762F9019B1BBA1A0DC3F39F
:104910000B23328020462B8001224B21FDF724F906
:1049200000224B212046FDF71FF902B070BD0000A8
:1049300010B50A4A1378984204460DD0517888423F
:104940000AD00BB141B90123D454FDF70BF920462D
:10495000BDE81040FFF78BBF10BD00BF781F0020DF
:1049600010B5C4B209212046FDF716F940F0010246
:10497000D2B220460921BDE81040FDF7F5B810B5C8
:10498000C4B209212046FDF707F9092100F0FE0213
:104990002046BDE81040FDF7E7B838B5C4B20D4673
:1049A00020460A21FDF7F8F840EA0502D2B2204677
:1049B0000A21BDE83840FDF7D7B810B50446FDF729
:1049C000D2F820461F21FFF7E8FF2046BDE810403F
:1049D000FFF7C6BF38B5C4B20D4620460A21FDF721
:1049E000DBF820EA0502D2B220460A21BDE83840B1
:1049F000FDF7BAB810B50446FFF7C1FF20461F21E6
:104A0000BDE81040FFF7E6BF10B5C0B20C460B2161
:104A1000FDF7C2F8204010BD1F21FFF7F5BF0A4681
:104A2000C0B20B21FDF7A0B81F21FFF7F8BF38B5C2
:104A3000C4B20D4620461721FDF7AEF820EA050264
:104A4000D2B220461721BDE83840FDF78DB870B5C9
:104A5000C4B2064604212046FDF79EF8042100F06A
:104A6000FB0205462046FDF77FF83046F021FFF7B0
:104A7000DEFF05F0F80220460421FDF775F8492213
:104A800020212046FDF770F80220FDF7B5F82046FA
:104A900001222121FDF768F820469A224121FDF7E5
:104AA00063F8204601224A21FDF75EF820460122E4
:104AB0004B21FDF759F8204600224B21FDF754F811
:104AC000204601225621FDF74FF8204601225821A9
:104AD000FDF74AF8204601224021FDF745F820461F
:104AE000FF220B21FDF740F8BDE870400220FDF7E2
:104AF00083B80000054BD3F8882042F47002C3F855
:104B000088204FF000629A60704700BF00ED00E01F
:104B100008B50B4B1A6842F400721A601A6842F426
:104B200080621A601A6842F480721A60032000F0F2
:104B30002FF80020FDF71EFBFDF7E8F8002008BD68
:104B4000003C0240034A044B11681B780B4413607D
:104B5000704700BF7C1F002078000020014B1868C0
:104B6000704700BF7C1F002038B50446FFF7F6FFF2
:104B7000631C1CBF054B1B78054618BFE418FFF7E4
:104B8000EDFF431BA342FAD338BD00BF78000020DD
:104B90000749CA6822F4E0620302120403F4E063E6
:104BA000120C134343F0BF6343F40033CB607047F0
:104BB00000ED00E0164B30B5DC68C4F30224C4F10C
:104BC0000703251D042B28BF0423062D4FF0FF35B6
:104BD0008CBF033C002405FA03F321EA0303A5403C
:104BE00022EA0502A340002843EA0203ACBF00F119
:104BF0006040084A4FEA0313B8BF00F00F00DBB271
:104C0000AABF00F56140135480F8003330BD00BFE7
:104C100000ED00E014ED00E0002807DB044A410944
:104C2000012300F01F00834042F82130704700BF8D
:104C300000E100E010B5044650B1437903F0FF02F3
:104C400013B90271FDF782F801236371002010BDD2
:104C50000120FCE710B5044620B390F8393003F08A
:104C6000FF021BB980F83820FDF788F8022384F88A
:104C70003930236861681A6822F440320A431A60A6
:104C80005A6BA16822F007020A435A631A6CE16862
:104C90006FF30D020A431A6400200123E06384F8D5
:104CA000393010BD0120FCE770477047036870B5CC
:104CB0005E681D68F207044614D5E90512D51A6826
:104CC00022F480721A60C26B42F00102C2630122B8
:104CD0009A60042380F83930002380F83830436923
:104CE00003B19847B20616D5AB0414D523681A68E9
:104CF00022F400521A6020229A60E36B43F0020310
:104D0000E363042384F83930002384F8383063697E
:104D10000BB120469847300716D5290514D52368CE
:104D20001A6822F400621A6008229A60E36B43F06A
:104D30000403E363042384F83930002384F8383013
:104D400063690BB12046984772070BD56B0509D5EF
:104D500023681A6822F480621A6004229A6020464E
:104D6000FFF7A2FFB00714D5A90512D523681A686A
:104D700022F400721A6002229A60E36BE36301235B
:104D800084F83930002384F8383023690BB1204689
:104D90009847F20613D5EB0411D523681A6822F45C
:104DA00080521A6010229A60E36BE363012384F857
:104DB0003930002384F838302046FFF776FF70BD85
:104DC000F0B590F83820012A03464FF002002BD0AE
:104DD000012283F8382083F8390003EB0112D2E96D
:104DE0000740556A174F44EA0040093C012C9CBF1C
:104DF00005F07F4210434FEA01161A6888BF40EA67
:104E0000056091B9516A394001435162012C996999
:104E1000916103D8596A21F07F41916201220020FB
:104E200083F8392083F83800F0BDD1693940014357
:104E3000D1619919012C896911619CBF25F07F45C9
:104E40001562EBE7F0FFFC002DE9F74FDFF8BC91AE
:104E50006C4A00230D6801249C4004EA0506AC431B
:104E600040F0B7804D68032705F003044FEA43087C
:104E700007FA08FC671E012F6FEA0C0C34D887680C
:104E800007EA0C0ECF6807FA08F747EA0E078760B3
:104E9000476827EA060EC5F300179F4047EA0E074A
:104EA0004760C76807EA0C0E8F6807FA08F747EAF9
:104EB0000E07022CC76019D14FEAD30A00EB8A0A09
:104EC00003F0070BDAF820704FEA8B0B4FF00F0E50
:104ED0000EFA0BFE27EA0E0E0F6907FA0BF747EAE8
:104EE0000E07CAF8207001E0032CDAD1076804FA33
:104EF00008F407EA0C073C4315F4403F046068D00F
:104F000000240194D9F8444044F48044C9F8444052
:104F1000D9F8444023F0030707F1804704F48044A4
:104F200007F59C37019403F0030C019CD7F808E0C7
:104F30004FEA8C0C0F2404FA0CF42EEA040E324CC7
:104F4000A0424DD004F58064A0424BD004F58064AB
:104F5000A04249D004F58064A04247D004F58064A3
:104F6000A04245D004F58064A04243D004F580649B
:104F7000A04241D004F58064A0423FD004F5806493
:104F8000A0423DD004F58064A04214BF0A24092445
:104F900004FA0CF444EA0E04BC609468F74315F478
:104FA000801F0CBF3C4034439460D46815F4001F4C
:104FB0000CBF3C403443D460546815F4003F0CBF30
:104FC0003C40344354601468ED0354BF3C403443C8
:104FD00014600133102B7FF43DAF03B0BDE8F08FB8
:104FE0000024D5E70124D3E70224D1E70324CFE747
:104FF0000424CDE70524CBE70624C9E70724C7E747
:105000000824C5E7003C014000000240003802408F
:105010000369194214BF0120002070470AB1816161
:1050200070470904FBE7436901EA030221EA03012F
:1050300041EA02418161704701684B6913F4806362
:105040004FF0000210D06FF480634B6120230263A5
:1050500080F83D3080F83E20036C80F83C2043F01F
:105060000403036401207047184670472DE9F84691
:1050700006460F4691461D464FEA114A3368BAF17B
:10508000010F0CBF5C699C6927EA0404A4B2B4FA5E
:1050900084F46409A14501D0002025E06A1CEED00B
:1050A000FFF75CFD089BC01AA84201D8002DE5D18E
:1050B0003368BAF1010F0CBF5B699B6927EA0303F0
:1050C0009BB2B3FA83F35B099945D7D10023202221
:1050D000336386F83D2086F83E30326C86F83C30EB
:1050E00042F0200232640120BDE8F8862DE9F0414B
:1050F00004460F46164698462568686927EA000068
:1051000080B2C0B16B695A0517D52B6843F40073A0
:105110002B606FF480636B6120220023236384F88B
:105120003D2084F83E30236C43F0040323640023C5
:1051300084F83C300120BDE8F081731CDDD0FFF71E
:105140000DFDA0EB0800B04201D8002ED4D1236899
:105150005A6927EA020292B2002ACDD00023202207
:10516000236384F83D2084F83E30236C1343DDE74D
:1051700070B504460D46164623685B691B0601D5CB
:1051800000201EE02046FFF757FFC8B96A1CF3D085
:10519000FFF7E4FC801BA84201D8002DECD1236866
:1051A0005B6913F08003E7D12022236384F83D205C
:1051B00084F83E30226C84F83C3042F020022264B5
:1051C000012070BD2DE9F0431546026885B0DDE988
:1051D0000C789946136843F4807313600E463B467F
:1051E000CDF8008000224FF001110446FFF73EFF8A
:1051F000236838B11B68DB0502D54FF400732364C4
:10520000032620E006F0FE061E611A4943463A4690
:105210002046FFF76BFFA8B9236803905A690392F1
:105220009B690393424639462046039BFFF7A0FF44
:10523000064660B1236C042B01BF2268136843F457
:10524000007313600126304605B0BDE8F083B9F164
:10525000010F236802D1EDB21D61F4E72A0A1A6139
:10526000394642462046FFF783FF0028E2D12368F3
:10527000F1E700BF020001002DE9FF479A460368ED
:1052800015461A6842F480621A601A68DDE90C78E3
:1052900042F480721A600E463B46CDF80080002230
:1052A0004FF001110446FFF7E1FE236838B11B6897
:1052B000DB0544BF4FF400732364032021E05FFA51
:1052C00086F906F0FE061E612B4943463A46204603
:1052D000FFF70CFFA0B9236803905A6903929B69FA
:1052E0000393424639462046039BFFF741FF58B1DE
:1052F000236C042B01BF2268136843F4007313600E
:10530000012004B0BDE8F087BAF1010F23681AD17B
:10531000EDB242461D6139462046FFF729FF02469D
:105320000028E5D121680B6843F480730B602046A8
:10533000CDF800803B464FF00111FFF797FE226841
:1053400060B11368B4E72A0A1A613946424620461A
:10535000FFF70EFF0028CBD12368D9E749F00103FE
:105360001361054943463A462046FFF7BFFE003821
:1053700018BF0120C5E700BF0200010070B5044658
:105380000D46164623685B695B0701D500201EE0C9
:105390002046FFF751FEC8B96A1CF3D0FFF7DEFBC9
:1053A000801BA84201D8002DECD123685B6913F063
:1053B0000403E7D12022236384F83D2084F83E30A3
:1053C000226C84F83C3042F020022264012070BD3F
:1053D00070B504460D46164621684B6913F040032C
:1053E00001D0002011E04A69D2060FD56FF01002FB
:1053F0004A612022236384F83D2084F83E30236CE8
:105400002364002384F83C30012070BDFFF7A6FB25
:10541000801BA84201D8002DDED123685B6913F000
:105420004003D9D12022236384F83D2084F83E3004
:10543000236C1343E4E7000070B5044608B901206B
:1054400070BD90F83D3003F0FF021BB980F83C209E
:10545000FCF7B6FC242384F83D3023681A6822F058
:1054600001021A601A6842F400421A601A6822F4B3
:1054700000421A6000F0A8FE3F4B65689D4294BF51
:105480003E4B3F4B98428CBF00230123002BD6D1CB
:105490002268394E51683B4BB0FBF3F321F03F01DA
:1054A0001943B542516088BF4FF49676116A88BFA0
:1054B000734321F03F0184BF4FF47A76B3FBF6F3D8
:1054C00001330B431362D169431E2B4821F44F4132
:1054D000854221F0FF0132D86D0040F6FC70B3FB2D
:1054E000F5F30133034242D0C3F30B031943D161F7
:1054F000D4E907301168034321F0C0010B43136066
:105500009168D4E9030321F40341034321F0FF012F
:105510000B439360D4E90530D168034321F0FF01C8
:105520000B43D360136843F0010313600020202372
:10553000206484F83D30206384F83E0080E7A06852
:1055400050B905EB4505B3FBF5F30133C3F30B038A
:105550007BB143F40043C9E719206843B3FBF0F380
:105560000133C3F30B0323B143F44043BEE70423E9
:10557000BCE70123BAE700BFA08601007F841E00BC
:10558000FF083D0040420F002DE9F74304469946CD
:105590000C9E0F469046FFF7E1FA94F83D30202B21
:1055A000054603D0022003B0BDE8F08300903C49DB
:1055B000192301222046FFF759FD0028F2D194F863
:1055C0003C30012BEED02068012384F83C30036886
:1055D000D9075EBF036843F001030360036823F447
:1055E00000630360212384F83D30402384F83E307B
:1055F000002323640A9B6362BDF82C306385638DAE
:105600002385284BE3624246CDE900654B46394687
:105610002046FFF7D7FD00282AD00120C3E7FFF777
:10562000A7FD40B1236C042B01BF2268136843F42B
:1056300000731360F1E7636A27681A4612F8011BCA
:1056400039616262628D218D013A92B262857A6916
:10565000481E80B2520720850AD548B15A783A616F
:1056600002336362638D013B02399BB221856385FE
:10567000238D2A4631462046002BD0D1FFF77EFEEF
:105680000028CFD12268136843F4007313602023ED
:1056900084F83D3084F83C0084F83E0083E700BF86
:1056A000020010000000FFFF2DE9F043044687B020
:1056B0009946109F0D469046FFF750FA94F83D30FA
:1056C000202B064604D00225284607B0BDE8F0830B
:1056D00000907A49192301222046FFF7C7FC0028D1
:1056E000F1D194F83C30012BEDD02068012384F8EF
:1056F0003C300368DB075EBF036843F001030360CF
:10570000036823F400630360222384F83D304023C0
:1057100084F83E30002323640E9B6362BDF83C3066
:105720006385638D2385664BE3622946CDE9007668
:105730004B4642462046FFF79FFD054608B101252E
:10574000C2E7228D2368B2B902905A6902929A691F
:105750000292029A1A6842F400721A60DFF86481B9
:10576000238D002B2CD1202284F83D2084F83C305E
:1057700084F83E30A8E7012A0AD11A6822F4806230
:105780001A6003905A6903929A690392039AE1E7B7
:10579000022A0ED11A6822F480621A601A6842F452
:1057A00000621A6004905A6904929B690493049BF6
:1057B000D4E705905A6905929B690593059BCDE74F
:1057C000032B56D8012B15D1324639462046FFF718
:1057D000FFFD0028B3D123681A69636A1A70636AEF
:1057E00001336362238D013B2385638D013B9BB2B3
:1057F0006385B5E7022B00963B464FF00002414619
:10580000204619D1FFF732FC002898D123681A6886
:1058100042F400721A601A69636A1A70626A531C51
:105820006362238D013B2385638D013B9BB26385BE
:1058300023681B695370D2E7FFF718FC0246002863
:105840007FF47DAF2368196821F4806119601969BC
:10585000636A1970636A01336362238D013B238598
:10586000638D013B9BB26385414600963B462046D3
:10587000C8E7324639462046FFF7AAFD00287FF4E4
:105880005EAF23681A69636A1A70628D616A013AB1
:1058900092B24B1C628522686362238D5069013B82
:1058A0009BB2400723857FF55BAF032B02BF1368D4
:1058B00023F48063136013694B7090E702001000BB
:1058C0000000FFFF0400010010B590F83D30202BD0
:1058D000DCB216D1242380F83D3003681A6822F028
:1058E00001021A605A6A22F010025A625A6A11437F
:1058F00059621A6842F001021A6080F83D400020A7
:1059000010BD0220FCE730B590F83D30202BDCB212
:1059100016D10268242380F83D30136823F0010378
:105920001360556A4FF6F0732B400B439BB25362E2
:10593000136843F00103136080F83D40002030BD40
:105940000220FCE70068D1F800C0D201843283183D
:105950002DE9F043C6685D684C68D1F8189005F4ED
:1059600070455D60C5680CF10107C5F30B45C6F3D2
:105970000B4626443D4445EA06455D60C668CD6851
:10598000C6F30A062E449D6805F470459D60C768FD
:105990008D68C7F30A0701353D4445EA06459D6019
:1059A0001D690E6925F007051D614FF0000E1E618F
:1059B00091F832709D6991F83180C3F818E091F840
:1059C000305045EA096545EA082545EA07459D61E5
:1059D0005D6925F0FF055D614D695D61DD6925F457
:1059E000E06525F00705DD61D1E907573D43DD613D
:1059F0009D6A4D6AC3F828E0072E9D629CBF0E4D3C
:105A0000AE5DDD6A05F0E025DD6288BF01268D6AA6
:105A1000C96AA4EB0C0474437543033444EA054497
:105A2000DC621C6B6FF30A041C631963835843F038
:105A300001038350BDE8F0833C4F020838B50446AB
:105A4000002863D090F8A13003F0FF021BB980F862
:105A5000A020FCF711FA022384F8A13023689A6988
:105A600022F070429A61D4E901200243E06899690A
:105A70000243206902430A439A619A682449606993
:105A80000A409A609A6842EA0042A06902439A601A
:105A9000DA68E0690A40DA60DA6842EA0042206ABD
:105AA0000243DA601A69606A0A401A611A6942EAB6
:105AB0000042A06A02431A615A690A405A615A694F
:105AC000E16A42EA0142216B0A435A61DA6A94F8B8
:105AD000350094F8361002F07F42DA62DD6A94F8FD
